:020000040000FA
:100000000A128A11FC2F00308A000408840A820731
:10001000003420343E343E342034203453344534CC
:100020004E3441344934203420343E343E3420347C
:040030002034003444
:100E900083120313881708130F30860088130D3050
:100EA000F000F00B512F8312031388170800F10094
:100EB0008312031308177108860088130D30F000A1
:100EC000F00B602F83120313881708008316031397
:100ED00008138813831603178901831603138601E9
:100EE000831203138601881708130800F100831288
:100EF00003138817081371088038860088130D3093
:100F0000F000F00B812F8312031388170800F40000
:100F1000F201F3019F2F7208740784000A128A11EC
:100F200003200A128A110A128A1157270A128A11FB
:100F30000130F2070318F30A0030F3079F2F7208FD
:100F4000740784000A128A1103200A128A11003AD7
:100F5000031DAB2FAC2F8B2FAD2F08000A128A1167
:100F600066270A128A110A128A1148270A128A1160
:100F7000B92FF801F9017908803AFF0080307F022B
:100F8000031DC42F80307802031CC72FC82FCA2F1F
:100F9000B92FB92F0E300A128A1176270A128A1138
:100FA00001300A128A1187270A128A110230F700CB
:100FB0004530F600A930F500F50BDC2FF60BDC2FE1
:100FC000F70BDC2FE32F0130F8070318F90A003084
:100FD000F9077908803AFF0080307F02031DF22F65
:100FE00080307802031CF52FF62FCA2FB92FB92FA6
:100FF000B92F0A128A11002883010A128A11AE2F12
:04400E00D4E0FFFFFC
:00000001FF
